:100000000C94DB000C9403010C9403010C94030189
:100010000C9403010C9403010C9403010C94030150
:100020000C9403010C9403010C949E080C940D098C
:100030000C9403010C9403010C9403010C94030130
:100040000C9403010C9403010C9403010C94030120
:100050000C9403010C9403010C9403010C945408B8
:100060000C9403010C9403010C9403010C94030100
:100070000C9403010C9403010C9403010C940301F0
:100080000C9403010C9403010C9403010C940301E0
:100090000C9403010C9403010C9403010C940301D0
:1000A0000C9403010C9403010C940301080B00024F
:1000B0000202000009040000010202000005240001
:1000C0001001052401010104240206052406000193
:1000D0000705810310004009040100020A00000026
:1000E00007050202400000070583024000000403E8
:1000F000090412010002EF02014041233680000191
:100100000102030141726475696E6F204C4C43001B
:1001100041726475696E6F204C656F6E6172646FB9
:1001200000070605040100080A0B0C0D0900000079
:10013000002300260029002C002F000000000200F0
:10014000090F0000030401000C0000000000000083
:10015000000000000000000000000000000025007A
:1001600028002B002E003100000000002400270092
:100170002A002D00300004040404040304050202D4
:100180000202040302020202060606060606040430
:1001900002020204040408020110408040102040C2
:1001A000804080080204018040201002011080106D
:1001B000204040203F0B11241FBECFEFDAE0DEBF0E
:1001C000CDBF11E0A0E0B1E0EAE0F3E202C00590AB
:1001D0000D92AA33B107D9F722E0AAE3B1E001C03A
:1001E0001D92AE35B207E1F710E0CBEDD0E004C0D0
:1001F0002197FE010E943B10CA3DD107C9F70E941A
:10020000450E0C9483110C9400004F925F926F92F4
:100210007F928F929F92AF92BF92CF92DF92EF9296
:10022000FF920F931F93CF93DF93E5010C151D05EC
:100230002E053F050CF051C0280139014601570138
:10024000882309F44FC0CA01DB0184159505A60572
:10025000B70514F4D301C201B501A40188159905AD
:10026000AA05BB0514F4AC01BD01C016D106E20617
:10027000F30664F4D501C401841B950BA60BB70BE0
:10028000AC01BD01440D551D661D771D9A01AB01E2
:100290002419350946095709AFEFBFEF0E94EB0F4C
:1002A000A501940124193509460957090E94CC0F6C
:1002B0002883398382E090E0DF91CF911F910F91E5
:1002C000FF90EF90DF90CF90BF90AF909F908F9076
:1002D0007F906F905F904F900895260137014801FD
:1002E0005901AECF90E080E0E7CFCF93DF9390E06D
:1002F000FC01EB56FE4F24918A589E4FFC018491DD
:100300008823C1F090E0880F991FFC01E859FE4F47
:10031000C591D491FC01E65AFE4FA591B4919FB7C7
:10032000F8943881822F809583238883EC91E22B87
:10033000EC939FBFDF91CF910895FC0180917701ED
:10034000882311F13FB7F89482E08093E90020916F
:10035000F200822F90E01816190614F481E090E064
:10036000882339F0289844E6409376014091F100C3
:100370004083222339F02091F200211103C02BE6A3
:100380002093E8003FBF08958FEF9FEF0895282F37
:1003900030E0F901E55CFE4F9491F901EB56FE4F18
:1003A00084912A583E4FF9012491222309F45BC01D
:1003B0009923E9F091509F30D0F4E92FF0E0ED510E
:1003C000FE4F0C943B100E021202F20106020A02CA
:1003D000F701F701F70115021B021F022302290290
:1003E000F7012D02909180009F7790938000E22F7B
:1003F000F0E0EE0FFF1FE35DFE4FA591B491EC918D
:10040000E82381E090E089F580E0089590918000F4
:100410009F7DEBCF90918000977FE7CF94B59F773A
:1004200094BDE5CF94B59F7DFBCF909190009F77D1
:1004300090939000DCCF909190009F7DF9CF9091A8
:100440009000977FF5CF9091C0009F779093C00068
:10045000CECF9091C0009F7DF9CF9091C200977F41
:100460009093C200C4CF80E090E008953FB7F89425
:100470008091720190917301A0917401B091750106
:1004800026B5A89B05C02F3F19F00196A11DB11DEF
:100490003FBFBA2FA92F982F8827BC01CD01620F2B
:1004A000711D811D911D42E0660F771F881F991FE6
:1004B0004A95D1F708958F929F92AF92BF92CF92B3
:1004C000DF92EF92FF924B015C010E9436026B01BA
:1004D0007C010E9436026C197D098E099F09683ED5
:1004E000734081059105A8F321E0821A9108A108C3
:1004F000B10888EEC80E83E0D81EE11CF11C8114FF
:100500009104A104B10429F7FF90EF90DF90CF9000
:10051000BF90AF909F908F9008954091610150914E
:10052000620120915F013091600142175307B4F4DA
:100530009091E8009570E1F39091E80092FD19C068
:100540008093F100809161019091620101968F7317
:100550009927892B19F48EEF8093E800809161012F
:10056000909162010196909362018093610181E014
:10057000089580E00895EF92FF920F931F93CF9319
:10058000DF93F82E192FE62E042F81E0860F880FB7
:100590000E948D0283E00E948D02CF2DD12FEC0EA0
:1005A000FD2EF11CCE15DF05B9F007FF13C0FE01CB
:1005B00084910E948D02182F80E00E948D02812379
:1005C00021968111EFCFDF91CF911F910F91FF9075
:1005D000EF9008958881EDCF81E0F5CFDF92EF9223
:1005E000FF920F931F93CF93DF93D82E8A01EB01D5
:1005F0007B01E40EF51ECE15DF0559F0D7FE12C0C3
:10060000FE0184910E948D0221968111F4CF0FEF9B
:100610001FEFC801DF91CF911F910F91FF90EF90D5
:10062000DF9008958881EECF2FB7F894877080937C
:10063000E9009091E800892F807295FF04C09091A5
:10064000F20080E4891B2FBF08957F928F929F92C2
:10065000AF92BF92CF92DF92EF92FF920F931F93D0
:10066000CF93DF93C82E8B017A018091770181119E
:1006700010C08FEF9FEFDF91CF911F910F91FF90EF
:10068000EF90DF90CF90BF90AF909F908F907F9032
:1006900008958091650180FF05C08091E00082602F
:1006A0008093E000CE2DDF2DD12C8AEFB82E8C2D3B
:1006B0008770982E8C2D8072882E8C2D8074782EC9
:1006C0009AE3A92E209719F4DD2009F452C08C2D4D
:1006D0000E94140381110AC0BA94BB2051F261E058
:1006E00070E080E090E00E945B02ECCF8C171D066A
:1006F00011F00CF08C2F9FB7F8949092E9002091A4
:10070000E80025FD02C09FBFDDCF282F30E0C21BCF
:10071000D30B882029F08150A0F01092F100FBCF7C
:10072000F801C7FC0AC0815050F041914093F1009C
:10073000FACF44914093F10031968150D0F7020FE7
:10074000131FDD2021F0A092E800D12CDCCF809196
:10075000E80085FD07C0A092E800DD24D39420972F
:1007600091F2F3CF209779F6772069F2A092E80012
:10077000CACF5D9884E680936401C7017CCF615045
:1007800030F02091F100FC0120830196F8CF2898E9
:1007900084E68093760108958091570181110DC000
:1007A00082E08093530184E08093540110925601BB
:1007B0001092550181E08093570183E591E00895FF
:1007C0000F931F93CF93DF931F92CDB7DEB782E0D5
:1007D000898342E450E06CEA70E080E80E94EE0217
:1007E0000E94CC03DC0112960D911C91011511059C
:1007F00089F0D801ED91FC910280F381E02DBE01DA
:100800006F5F7F4FC801099597FD04C0F80100850F
:100810001185ECCF89810F90DF91CF911F910F91BE
:100820000895CF93DF93EC0180911201882331F07A
:1008300083E00E9425031816190634F081E090E049
:100840009B838A8380E090E0DF91CF910895CF93DE
:10085000DF931F92CDB7DEB76983DC01ED91FC9188
:100860000280F381E02D41E050E0BE016F5F7F4FD9
:1008700009950F90DF91CF91089583E08093E9006F
:100880008091F200882319F08AE38093E8000895AC
:1008900083E00E94140390E00895CF93DF931F92AA
:1008A000CDB7DEB7FC018485958597FD08C02FEF95
:1008B0003FEF358724870F90DF91CF910895CE01C8
:1008C00001960E949D01019719F4898190E0F3CF70
:1008D0008FEF9FEFF0CF0F931F93CF93DF931F9274
:1008E000CDB7DEB78C01FC018485958597FF0BC0E1
:1008F000CE0101960E949D01019771F4898190E0DB
:10090000F80195878487F801848595850F90DF919C
:10091000CF911F910F9108958FEF9FEFF1CFFC01C1
:100920008485958597FD0BC09FB7F89482E08093EE
:10093000E9008091F2009FBF90E0019608959FB773
:10094000F89482E08093E9008091F2009FBF90E0EC
:100950000895DC01FB0112962C91129784819581F8
:100960002817190641F491818081813A31F49D7FE5
:1009700081E0913009F080E008958132E1F79B3009
:1009800029F482811F968C9381E008959A3099F71B
:10099000828150968C93F8CFDC01FB0188E4808340
:1009A00089E4818384E482831D969C911D979F70C6
:1009B0009F5B93831D968D919C9124E096958795DE
:1009C0002A95E1F78F708F5B848385E00895EF921D
:1009D000FF920F931F93CF93DF93FB012081213868
:1009E00089F52381223271F5DC0112964C91248124
:1009F00035814217130631F58C01FC01C385D4857E
:100A0000F12CE12C209791F04C815D816A817B81F2
:100A10008E81811180E80E94EE028F3F980759F085
:100A2000E80EF91E0990D881C02DECCF81E0D801E5
:100A30001F968C93C701DF91CF911F910F91FF906B
:100A4000EF90089590E080E0F6CFCF93DF93CDB79D
:100A5000DEB769970FB6F894DEBF0FBECDBFFC01BD
:100A6000DB018C918F5F8C939E012D5F3F4F8DE05A
:100A7000D9011D928A95E9F729E0298384E08A83C8
:100A800091E09D8383E08E832A8721E22B879C87D8
:100A90009D879F8722E2288B27E02B8B25E02C8BDC
:100AA0008E8B20E430E0388F2F8B998F82818B835F
:100AB00095858685998B8A8B838180688D8B49E1AA
:100AC00050E0BE016F5F7F4F80E00E94EE026996AA
:100AD0000FB6F894DEBF0FBECDBFDF91CF91089562
:100AE000CF93DF9380914B01811167C081E08093A8
:100AF0003E0180933F0124E431E030934101209393
:100B0000400110924301109242012DE131E03093F7
:100B10003B0120933A011092460110924501109238
:100B20004801109247018093490180934A0181EC6A
:100B3000809344010E94CC03FC01818190913E018D
:100B4000482F490F5527551F483051059CF5A28164
:100B5000B381109709F52AE331E0338322832081A2
:100B600020933C0180933D0180913F01820F80835F
:100B700020914001A22FB09141018A2F821B891739
:100B8000C8F481813D91C82FD0E0C050DF4F388339
:100B90008F5F8183F2CFD90118962D913C911997DF
:100BA00021153105C1F72AE331E019963C932E93C4
:100BB0001897D5CF81E080934B018AE391E0DF91D4
:100BC000CF9108954F925F926F927F928F929F92F2
:100BD000AF92BF92CF92DF92EF92FF920F931F934B
:100BE000CF93DF93CDB7DEB74DB65EB68091590295
:100BF0002DB73EB7281B31090FB6F8943EBF0FBE84
:100C00002DBF8DB79EB701963C018090FC01912CC1
:100C10008091F8019091F901D301FC019F01281BFB
:100C2000390B281539051CF421912D93F7CF8091AC
:100C3000FD01882359F18091F4019091F50128E09C
:100C400097FD09C068E671E00E9427106DE270E030
:100C50000E942710262F8091F6019091F70168E0FD
:100C600097FD08C068E671E00E9427106DE270E011
:100C70000E942710F301E80DF91D90E1699FB00172
:100C80001124262B2083F40131964F015301A80C27
:100C9000B91CC0900402D0900502E0900602F090CA
:100CA000070200910002109101022091020230918E
:100CB00003024091C8015091C9016091CA0170912D
:100CC000CB018091FE0181700E940501880E991E62
:100CD0005301A80CB91CC0900C02D0900D02E090FA
:100CE0000E02F0900F02009108021091090220916B
:100CF0000A0230910B024091CC015091CD016091DC
:100D0000CE017091CF018091FE01869581700E9485
:100D10000501880E991E5301A80CB91CC09014023D
:100D2000D0901502E0901602F09017020091100288
:100D30001091110220911202309113024091D001C2
:100D40005091D1016091D2017091D3018091FE0147
:100D500082FB882780F90E940501880E991E5301A5
:100D6000A80CB91CC0901C02D0901D02E0901E027D
:100D7000F0901F02009118021091190220911A029E
:100D800030911B024091D4015091D5016091D60160
:100D90007091D7018091FE0183FB882780F90E9422
:100DA0000501880E991E5301A80CB91CC09024029D
:100DB000D0902502E0902602F090270200912002B8
:100DC0001091210220912202309123024091D801FA
:100DD0005091D9016091DA017091DB018091FE019F
:100DE000829581700E940501880E991E5301A80CFE
:100DF000B91CC0902C02D0902D02E0902E02F090F1
:100E00002F02009128021091290220912A0230918C
:100E10002B024091DC015091DD016091DE01709167
:100E2000DF018091FE0185FB882780F90E94050182
:100E3000880E991E5301A80CB91CC0903402D090A2
:100E40003502E0903602F0903702009130021091A6
:100E5000310220913202309133024091E4015091ED
:100E6000E5016091E6017091E7018091FF018170D9
:100E70000E940501880E991E5301A80CB91CC09050
:100E80003C02D0903D02E0903E02F0903F02009183
:100E900038021091390220913A0230913B02409180
:100EA000E0015091E1016091E2017091E3018091D4
:100EB000FF01869581700E940501880E991E5301DD
:100EC000A80CB91CC0904402D0904502E0904602A4
:100ED000F09047020091400210914102209142029D
:100EE000309143024091E8015091E9016091EA019B
:100EF0007091EB018091FF0182FB882780F90E94AD
:100F00000501880E991E5301A80CB91CC0904C0213
:100F1000D0904D02E0904E02F0904F0200914802B6
:100F20001091490220914A0230914B024091EC010C
:100F30005091ED016091EE017091EF018091FF0100
:100F400083FB882780F90E940501880D991D5301B4
:100F5000A80EB91EC0905402D0905502E0905602DF
:100F6000F0905702009150021091510220915202CC
:100F7000309153024091F0015091F1016091F201E2
:100F80007091F3018091FF01829581700E940501AB
:100F90000E9470054C01409159028091580250E026
:100FA0005A01FFEFAF1ABF0A2DB73EB72A193B0906
:100FB0000FB6F8943EBF0FBE2DBF0DB71EB70F5F23
:100FC0001F4FEDB7FEB78183B301C80101960E94A0
:100FD0007A11F4018381A501B80180640E94250380
:100FE0000FB6F8945EBE0FBE4DBEDF91CF911F913C
:100FF0000F91FF90EF90DF90CF90BF90AF909F90B8
:101000008F907F906F905F904F9008958F929F92F6
:10101000AF92BF920F931F93CF93DF93CDB7DEB7FD
:10102000A1970FB6F894DEBF0FBECDBF19A2423014
:1010300008F44AE08E010F5D1F4F842E912CB12CD5
:10104000A12CA50194010E94F60FE62FB901CA0157
:10105000EA3044F5E05DD801EE938D01232B242B7B
:10106000252B79F790E080E0109769F0FD01019061
:101070000020E9F73197AF014A1B5B0BBD0188E700
:1010800091E00E941104A1960FB6F894DEBF0FBE46
:10109000CDBFDF91CF911F910F91BF90AF909F90E7
:1010A0008F900895E95CD7CF1F920F920FB60F92E1
:1010B00011242F933F938F939F93AF93BF9380916E
:1010C0006E0190916F01A0917001B091710130910A
:1010D0006D0123E0230F2D3758F50196A11DB11D99
:1010E00020936D0180936E0190936F01A093700126
:1010F000B09371018091720190917301A09174017C
:10110000B09175010196A11DB11D8093720190935C
:101110007301A0937401B0937501BF91AF919F913A
:101120008F913F912F910F900FBE0F901F901895A8
:1011300026E8230F0296A11DB11DD2CF1F920F9258
:101140000FB60F9211248F939F938091E10090919D
:10115000E100937F9093E10083FF0FC01092E900BC
:1011600091E09093EB001092EC0092E39093ED00ED
:101170001092770198E09093F00082FF22C093E0F4
:101180009093E9009091F200992319F09AE39093DB
:10119000E80090916401992341F09091640191508D
:1011A00090936401911101C05D9A90917601992309
:1011B00041F090917601915090937601911101C088
:1011C000289A84FF18C08091E2008E7E816080930F
:1011D000E2008091E1008F7E8093E10080916501C3
:1011E0008E7E8061809365019F918F910F900FBEDD
:1011F0000F901F90189580FFF7CF8091E2008E7EB0
:1012000080618093E2008091E1008E7E8093E10016
:10121000809165018E7E8160E5CF1F920F920FB69F
:101220000F921124CF92DF92EF92FF920F931F93B0
:101230002F933F934F935F936F937F938F939F93DE
:10124000AF93BF93EF93FF93CF93DF93CDB7DEB709
:101250006C97DEBFCDBF1092E9008091E80083FF5C
:1012600025C068E0CE0145960E94BF0382EF8093BF
:10127000E8008D8987FF39C09091E80090FFFCCF8E
:10128000982F907609F034C19E894F89588D2F8907
:10129000F88C911131C0803861F58091660180939E
:1012A000F1001092F1008EEF8093E8006C960FB67B
:1012B000F894DEBF0FBECDBFDF91CF91FF91EF91CC
:1012C000BF91AF919F918F917F916F915F914F915E
:1012D0003F912F911F910F91FF90EF90DF90CF9052
:1012E0000F900FBE0F901F9018959EEF9093E800FF
:1012F000C7CF1092F100D5CF913059F48111D3CFDF
:101300004130510581F6809166018D7F80936601A1
:10131000CACF933049F48111C6CF4130510519F637
:10132000809166018260F2CF953041F48091E800AF
:1013300080FFFCCF20682093E300B5CF963009F002
:10134000A9C00B8D1C8D22E01092E9001092620161
:1013500010926101F2122EC01092600110925F0192
:101360000E94E0031F8299E09983FA8291E09E83B4
:1013700090EA98879AEF99872091610130916201F4
:10138000275F3F4F3C832B838D831092E90010929F
:101390006201109261011093600100935F0149E0C6
:1013A00050E0BE016F5F7F4F80E00E94EE020E941E
:1013B000E00379CF1093600100935F010E94CC039A
:1013C000DC0112960D911C910115110509F451C112
:1013D000D801ED91FC910480F581E02DBE016B5E9A
:1013E0007F4FC8010995009709F03EC1F8010085BB
:1013F0001185EACFF3E0FF120EC08F89882309F42C
:1014000040C0823061F440E860E180E191E00E94F8
:10141000BB02811148CF81E28093EB0047CF81303E
:1014200029F440E86BE084E091E0F1CF833099F754
:101430000E94CC03DC011296ED90FC908E010F5FB0
:101440001F4F6801E114F10479F0D701ED91FC918F
:101450000680F781E02DB801C7010995080F111D1D
:10146000F701E084F184EECFD8011C92F6010190DF
:101470000020E9F73197BF016C197D0940E0C601F2
:10148000C6CF6EEE70E0FB01449150E080E80E9410
:10149000EE0209CF973009F4BECF983021F481E0F5
:1014A0008093F10000CF993009F0FDCE837009F0F0
:1014B000B2CFE1E0F1E081E031E096E32191222337
:1014C00071F08093E9003093EB00DF0111972C91CC
:1014D0002093EC009093ED008F5F873079F78EE7D3
:1014E0008093EA001092EA008F8980937701DBCE27
:1014F0008B8D9C8D1092E900109262011092610117
:101500009093600180935F01898D811192C08E89D3
:101510009D89913A49F4813209F07DCF47E050E04E
:101520006BE071E080E0B3CF913209F074CF833289
:1015300069F48F89988DB0E0A0E0809307019093C3
:101540000801A0930901B0930A01ADCE803269F47D
:101550008091E80082FFFCCF67E08BE091E00E9481
:10156000BF038BEF8093E8009ECE823209F09BCEC2
:101570008F8980931201EEEFFFE7859194918B3F65
:101580009C4D51F1E0E0F8E080910B0190910C014D
:10159000A0910D01B0910E01803B9440A105B105D1
:1015A000F1F48091120180FD1AC0EE3F8AE0F80745
:1015B00089F587E797E79183808380916000809326
:1015C000630188E19BE00FB6F894A89580936000D2
:1015D0000FBE9093600067CEEEEFFAE0D5CF80812A
:1015E00091818737974709F05ECEA895809160007A
:1015F0008861809360008091630180936000EE3F7A
:101600002AE0F20789F08091FE0A9091FF0A918307
:10161000808349CE808191818737980751F29093DA
:10162000FF0A8093FE0AC5CF1092FF0A1092FE0AAD
:101630003ACE0E94CC03DC0112960D911C9101154B
:10164000110509F4E8CED801ED91FC910190F081EB
:10165000E02DBE016B5E7F4FC8010995811123CE3D
:10166000F80100851185EBCF181619060CF41BCE76
:10167000D2CEF1E0FF12BECE62EF70E004CFCF9287
:10168000DF92EF92FF920F931F93CF93DF93CDB72B
:10169000DEB7C659D1090FB6F894DEBF0FBECDBF75
:1016A00010927B0110927A0188EE93E0A0E0B0E006
:1016B00080937C0190937D01A0937E01B0937F0184
:1016C00089E291E090937901809378018FEF9FEF09
:1016D00090938501809384011092F9011092F80192
:1016E0001092FC011092000210920102109202026C
:1016F000109203028FEF93E0A0E0B0E08093040229
:1017000090930502A0930602B0930702109208027C
:101710001092090210920A0210920B0280930C029E
:1017200090930D02A0930E02B0930F02109210023C
:10173000109211021092120210921302809314025E
:1017400090931502A0931602B093170210921802FC
:101750001092190210921A0210921B0280931C021E
:1017600090931D02A0931E02B0931F0210922002BC
:1017700010922102109222021092230280932402DE
:1017800090932502A0932602B0932702109228027C
:101790001092290210922A0210922B0280932C029E
:1017A00090932D02A0932E02B0932F02109230023C
:1017B000109231021092320210923302809334025E
:1017C00090933502A0933602B093370210923802FC
:1017D0001092390210923A0210923B0280933C021E
:1017E00090933D02A0933E02B0933F0210924002BC
:1017F00010924102109242021092430280934402DE
:1018000090934502A0934602B0934702109248027B
:101810001092490210924A0210924B0280934C029D
:1018200090934D02A0934E02B0934F02109250023B
:10183000109251021092520210925302809354025D
:1018400090935502A0935602B093570253E05093E1
:10185000580230E23093FB0122E02093FD018FE338
:101860008093FE018FE18093FF0145E0498391E081
:101870009A8389E08B83A4E0AC83F1EAFD839E83A5
:1018800065E86F83588749878A8759E15B879C871A
:1018900059E25D873E8775E17F87188A15E2198BCB
:1018A0009A8B65E76B8B9C8B55E95D8B3E8B35E5A1
:1018B0003F8B188EB5E6B98F1A8E31E83B8F2C8F8F
:1018C0004D8F9E8F8F8FE9E3CE2EC8A279A31AA2E7
:1018D0001BA307E0D02EDCA2E5E3EDA31EA206E4E5
:1018E000E02EEFA20BE3F02EF8A699A7BAA704E129
:1018F0000BA76CA7ADA75EA79FA738AB29AB8AAB98
:10190000CBAA7CAB1DAA1EABDFAAE8AF19AEEAAE2C
:10191000FBAE9CAFBDAF0EAF6FAF2196AFAF2197BF
:1019200022965FAF229723969FAF239724963FAFCF
:10193000249725962FAF259726968FAF2697279623
:101940009FAF279728967FAF289729961FAE299794
:10195000B7E22A96BFAF2A979FEF2B969FAF2B97A0
:101960002C969FAF2C972D961FAE2D972E961FAEBF
:101970002E972F966FAF2F97A0E16096AFAF60972D
:1019800061965FAF619716E062961FAF62976396AC
:10199000FFAF639764961FAE649765968FAF6597A8
:1019A00010E366961FAF669767968FAF679711E350
:1019B00068961FAF689769968FAF699712E36A962A
:1019C0001FAF6A976B968FAF6B9713E36C961FAF41
:1019D0006C976D968FAF6D9714E36E961FAF6E97F1
:1019E0006F968FAF6F97A096EFAFA097A1963FAF7E
:1019F000A197A2962FAFA297E0ECA396EFAFA39783
:101A0000A4964FAFA497A5962FAFA597A6967FAFA4
:101A1000A697A7961FAEA797A896BFAFA897A99617
:101A20009FAFA997AA969FAFAA97AB961FAEAB9709
:101A3000AC961FAEAC97AD966FAFAD97AE96AFAF0D
:101A4000AE97AF965FAFAF97E0964FAFE097E19656
:101A5000FFAFE197E2961FAEE297E3968FAFE39771
:101A60009AEBE4969FAFE497E5968FAFE5979BEBF3
:101A7000E6969FAFE697E7968FAFE79794ECE896E8
:101A80009FAFE897E9968FAFE99795ECEA969FAFFD
:101A9000EA97EB968FAFEB9788ECEC968FAFEC97CD
:101AA000ED963FAFED97EE962FAFEE97EF96EFAF37
:101AB000EF97C158DF4FE883CF57D0408FE790E0D2
:101AC0000E9455107C018FE7FE013196D7010190ED
:101AD0000D928A95E1F787E090E00E9455108C0105
:101AE000DC0111961C921E921396FC92EE921297B4
:101AF0008FE790E015969C938E93149716961C9200
:101B00000E947005FC01A385B485109709F0A3C05D
:101B10001487038785859685D80114962D913C916D
:101B2000820F931F968785879091FB01892F869559
:101B300086958695977009F096C08093FC01109168
:101B4000FC01812F90E0009711F481E090E00E9469
:101B500055109093F9018093F80181E09091FD0177
:101B6000911101C080E01A5E810F8093590210929A
:101B7000C8011092C9011092CA011092CB011092B3
:101B8000CC011092CD011092CE011092CF01109293
:101B9000D0011092D1011092D2011092D301109273
:101BA000D4011092D5011092D6011092D701109253
:101BB000D8011092D9011092DA011092DB01109233
:101BC000DC011092DD011092DE011092DF01109213
:101BD000E0011092E1011092E2011092E3011092F3
:101BE000E4011092E5011092E6011092E7011092D3
:101BF000E8011092E9011092EA011092EB011092B3
:101C0000EC011092ED011092EE011092EF01109292
:101C1000F0011092F1011092F2011092F3018FEF96
:101C20009FEF9093F5018093F4019093F7018093D7
:101C3000F60190E080E02091FC0128171906A9F038
:101C4000A4F0E091F801F091F901E80FF91F10827A
:101C50000196F1CFDC018D919C9111970097D1F7FE
:101C60000D931C9357CF8F5F68CFCA56DF4F0FB6C7
:101C7000F894DEBF0FBECDBFDF91CF911F910F91C2
:101C8000FF90EF90DF90CF900895789484B58260B4
:101C900084BD84B5816084BD85B5826085BD85B510
:101CA000816085BD80916E00816080936E0010928E
:101CB0008100809181008260809381008091810009
:101CC000816080938100809180008160809380009A
:101CD0008091910082608093910080919100816059
:101CE000809391008091900081608093900080911A
:101CF000C10084608093C1008091C10082608093A4
:101D0000C1008091C10081608093C1008091C300B7
:101D100081608093C3008091C00082608093C00086
:101D20008091C20081608093C20080917A008460BB
:101D300080937A0080917A00826080937A0080910B
:101D40007A00816080937A0080917A008068809325
:101D50007A001092770110926601109265018091CD
:101D6000D70081608093D70080EA8093D80089B53E
:101D7000806189BD89B5826089BD09B400FEFDCF4F
:101D800061E070E080E090E00E945B028091D8000A
:101D90008F7C80618093D8008091E000807F809369
:101DA000E0008091E1008E7E8093E1008DE08093E1
:101DB000E200559A209A82E00E94750183E00E9419
:101DC00075018FEF9FEF90938501809384011092AE
:101DD000000210920102109202021092030288EC9B
:101DE00090E0A0E0B0E08093040290930502A093FD
:101DF0000602B093070281E08093FA010E94E20597
:101E0000C4E2D1E000E010E0FE01849120917B006B
:101E1000982F990F990F90722F7D922B90937B00A2
:101E20008770806480937C0080917A0080648093C6
:101E30007A0080917A0086FDFCCFA0907800B09067
:101E4000790080916B0190916C018A159B0591F14D
:101E500065010B2C000CEE08FF084AE0C701B60133
:101E6000F7FE0DC06DE288E791E00E942704662727
:101E70007727CB016C197D098E099F094AE00E94E2
:101E8000060842E050E067E371E088E791E00E94D5
:101E90001104C092C801D092C901E092CA01F09227
:101EA000CB018091FA0181110E94E205B0926C0190
:101EB000A0926B0182E00E94C7019C01EE24E39492
:101EC000F12C2115310511F0F12CE12C80916901E3
:101ED00090916A01E816F906B9F09091FB01232B65
:101EE00009F448C0992361F0E091F801F091F901FB
:101EF00080818E7F80838091FA0181110E94E205AA
:101F0000F0926A01E092690183E00E94C7019C019E
:101F1000EE24E394F12C2115310511F0F12CE12C84
:101F20008091670190916801E816F906B1F09091EF
:101F3000FB01232B41F1923060F0E091F801F09128
:101F4000F90180818D7F80838091FA0181110E9447
:101F5000E205F0926801E092670162E370E080E0E0
:101F600090E00E945B020115110509F44DCF0E941B
:101F700000004ACF992321F2E091F801F091F90194
:101F800080818160B7CF923020F3E091F801F09129
:101F9000F90180818260D7CF052E97FB1EF4009453
:101FA0000E94E30F57FD07D00E94F60F07FC03D0F5
:101FB0004EF40C94E30F50954095309521953F4F8A
:101FC0004F4F5F4F089590958095709561957F4F25
:101FD0008F4F9F4F08950E941810A59F900DB49F9A
:101FE000900DA49F800D911D11240895A1E21A2E39
:101FF000AA1BBB1BFD010DC0AA1FBB1FEE1FFF1FAD
:10200000A217B307E407F50720F0A21BB30BE40BFC
:10201000F50B661F771F881F991F1A9469F7609543
:102020007095809590959B01AC01BD01CF010895FD
:10203000A29FB001B39FC001A39F700D811D112409
:10204000911DB29F700D811D1124911D089597FB64
:10205000072E16F4009407D077FD09D00E94411096
:1020600007FC05D03EF4909581959F4F089570959B
:1020700061957F4F0895EE0FFF1F0590F491E02DBD
:102080000994AA1BBB1B51E107C0AA1FBB1FA617BF
:10209000B70710F0A61BB70B881F991F5A95A9F711
:1020A00080959095BC01CD0108950F931F93CF9318
:1020B000DF938230910510F482E090E0E0915C02C1
:1020C000F0915D0230E020E0B0E0A0E0309799F4BC
:1020D0002115310509F44AC0281B390B243031057C
:1020E000D8F58A819B816115710589F1FB01938384
:1020F0008283FE0111C04081518102811381481702
:102100005907E0F04817590799F4109761F01296B3
:102110000C93129713961C933296CF01DF91CF91B7
:102120001F910F91089500935C0210935D02F4CF0C
:102130002115310551F04217530738F0A901DB0191
:102140009A01BD01DF01F801C1CFEF01F9CF9093F2
:102150005D0280935C02CDCFFE01E20FF31F8193FD
:1021600091932250310939832883D7CF20915A0285
:1021700030915B02232B41F420911501309116011F
:1021800030935B0220935A02209113013091140185
:102190002115310541F42DB73EB7409117015091FB
:1021A0001801241B350BE0915A02F0915B02E217F3
:1021B000F307A0F42E1B3F0B2817390778F0AC016A
:1021C0004E5F5F4F2417350748F04E0F5F1F509347
:1021D0005B0240935A02819391939FCFF0E0E0E03D
:1021E0009CCFCF93DF930097E9F0FC0132971382E5
:1021F0001282A0915C02B0915D02ED0130E020E01E
:102200001097A1F420813181820F931F20915A02EF
:1022100030915B022817390709F061C0F0935B0227
:10222000E0935A02DF91CF910895EA01CE17DF07BC
:10223000E8F54A815B819E0141155105B1F7E9013D
:10224000FB83EA8349915991C40FD51FEC17FD0711
:1022500061F4808191810296840F951FE901998331
:102260008883828193819B838A83F0E0E0E01296E9
:102270008D919C9113970097B9F52D913C911197F1
:10228000CD010296820F931F20915A0230915B027A
:102290002817390739F6309751F510925D021092E0
:1022A0005C02B0935B02A0935A02BCCFD383C2837B
:1022B00040815181840F951FC817D90761F44E5F83
:1022C0005F4F88819981480F591F518340838A81CC
:1022D0009B81938382832115310509F0B0CFF09360
:1022E0005D02E0935C029ECFFD01DC01C0CF138252
:1022F0001282D7CFFB01DC0102C001900D92415048
:0A2300005040D8F70895F894FFCF7D
:10230A0000C18081000000FFFFFFFF00E100000024
:10231A0000000000005E02800000000000A9042501
:10232A0005E704CC04000000002704110448043D1A
:0A233A00048F044D046B040D0A002B
:00000001FF
